:020000040800F2
:1000000000C00020F1110008C9290008CD2900080E
:10001000D1290008D5290008D929000800000000CE
:10002000000000000000000000000000DD290008C2
:10003000E129000800000000E5290008E92900087E
:100040003912000839120008391200083912000864
:100050003912000839120008391200083912000854
:10006000391200083912000839120008411200083C
:100070003912000839120008391200083912000834
:10008000F9290008052A0008391200083912000869
:100090003912000839120008391200083912000814
:1000A0003912000839120008391200083912000804
:1000B0005D4400083912000839120008391200089E
:1000C00039120008391200083912000839120008E4
:1000D00039120008391200083912000839120008D4
:1000E00039120008391200083912000839120008C4
:1000F00039120008391200083912000839120008B4
:1001000039120008391200083912000839120008A3
:100110003912000839120008391200083912000893
:100120003912000839120008391200083912000883
:1001300000000000000000000000000000000000BF
:1001400000000000000000000000000000000000AF
:10015000000000000000000000000000000000009F
:10016000000000000000000000000000000000008F
:10017000000000000000000000000000000000007F
:10018000000000000000000000000000000000006F
:10019000000000000000000000000000000000005F
:1001A000000000000000000000000000000000004F
:1001B000000000000000000000000000000000003F
:1001C000000000000000000000000000000000002F
:1001D000000000000000000000000000000000001F
:0401E0005FF8E0F1F3
:1001E80010B5054C237833B9044B13B10448AFF369
:1001F80000800123237010BD2400002000000000AF
:100208005448000808B5034B1BB103490348AFF332
:10021800008008BD000000002800002054480008A5
:1002280081F0004102E000BF83F0004330B54FEA9F
:1002380041044FEA430594EA050F08BF90EA020F0C
:100248001FBF54EA000C55EA020C7FEA645C7FEA9F
:10025800655C00F0E2804FEA5454D4EB5555B8BFC2
:100268006D420CDD2C4480EA020281EA030382EA33
:10027800000083EA010180EA020281EA0303362DC5
:1002880088BF30BD11F0004F4FEA01314FF4801C98
:100298004CEA113102D0404261EB410113F0004FAA
:1002A8004FEA03334CEA133302D0524263EB430361
:1002B80094EA050F00F0A780A4F10104D5F1200EFF
:1002C8000DDB02FA0EFC22FA05F2801841F100015A
:1002D80003FA0EF2801843FA05F359410EE0A5F12E
:1002E80020050EF1200E012A03FA0EFC28BF4CF05F
:1002F800020C43FA05F3C01851EBE37101F0004515
:1003080007D54FF0000EDCF1000C7EEB00006EEB21
:100318000101B1F5801F1BD3B1F5001F0CD34908AB
:100328005FEA30004FEA3C0C04F101044FEA445202
:1003380012F5800F80F09A80BCF1004F08BF5FEA89
:10034800500C50F1000041EB045141EA050130BD69
:100358005FEA4C0C404141EB010111F4801FA4F10C
:100368000104E9D191F0000F04BF01460020B1FA61
:1003780081F308BF2033A3F10B03B3F120020CDA99
:100388000C3208DD02F1140CC2F10C0201FA0CF077
:1003980021FA02F10CE002F11402D8BFC2F1200CDC
:1003A80001FA02F120FA0CFCDCBF41EA0C01904092
:1003B800E41AA2BF01EB0451294330BD6FEA0404DB
:1003C8001F3C1CDA0C340EDC04F11404C4F12002C6
:1003D80020FA04F001FA02F340EA030021FA04F3D8
:1003E80045EA030130BDC4F10C04C4F1200220FA2F
:1003F80002F001FA04F340EA0300294630BD21FA6D
:1004080004F0294630BD94F0000F83F4801306BF32
:1004180081F480110134013D4EE77FEA645C18BF26
:100428007FEA655C29D094EA050F08BF90EA020FBD
:1004380005D054EA000C04BF1946104630BD91EAB5
:10044800030F1EBF0021002030BD5FEA545C05D1B8
:100458004000494128BF41F0004130BD14F58004F7
:100468003CBF01F5801130BD01F0004545F0FE416B
:1004780041F470014FF0000030BD7FEA645C1ABFA0
:10048800194610467FEA655C1CBF0B46024650EAD7
:10049800013406BF52EA033591EA030F41F4002103
:1004A80030BD00BF90F0000F04BF0021704730B589
:1004B8004FF4806404F132044FF000054FF000015E
:1004C80050E700BF90F0000F04BF0021704730B51F
:1004D8004FF4806404F1320410F0004548BF4042F4
:1004E8004FF000013EE700BF42004FEAE2014FEA49
:1004F80031014FEA02701FBF12F07F4393F07F4F24
:1005080081F06051704792F0000F14BF93F07F4F55
:10051800704730B54FF4607401F0004521F0004198
:1005280020E700BF50EA010208BF704730B54FF01E
:1005380000050AE050EA010208BF704730B511F023
:10054800004502D5404261EB41014FF4806404F15B
:1005580032045FEA915C3FF4DCAE4FF003025FEADD
:10056800DC0C18BF03325FEADC0C18BF033202EB65
:10057800DC02C2F1200300FA03FC20FA02F001FABF
:1005880003FE40EA0E0021FA02F11444C1E600BF5E
:1005980070B54FF0FF0C4CF4E06C1CEA11541DBF11
:1005A8001CEA135594EA0C0F95EA0C0F00F0DEF8DC
:1005B8002C4481EA030621EA4C5123EA4C5350EAC1
:1005C800013518BF52EA033541F4801143F4801312
:1005D80038D0A0FB02CE4FF00005E1FB02E506F0A3
:1005E8000042E0FB03E54FF00006E1FB03569CF0F8
:1005F800000F18BF4EF0010EA4F1FF04B6F5007FFE
:1006080064F5407404D25FEA4E0E6D4146EB06066F
:1006180042EAC62141EA55514FEAC52040EA5E50F8
:100628004FEACE2EB4F1FD0C88BFBCF5E06F1ED8A2
:10063800BEF1004F08BF5FEA500E50F1000041EBD9
:10064800045170BD06F0004646EA010140EA020086
:1006580081EA0301B4EB5C04C2BFD4EB0C0541EAA8
:10066800045170BD41F480114FF0000E013C00F3BD
:10067800AB8014F1360FDEBF002001F0004170BDE1
:10068800C4F10004203C35DA0C341BDC04F11404FA
:10069800C4F1200500FA05F320FA04F001FA05F286
:1006A80040EA020001F0004221F0004110EBD37053
:1006B80021FA04F642EB06015EEA430E08BF20EA7F
:1006C800D37070BDC4F10C04C4F1200500FA04F322
:1006D80020FA05F001FA04F240EA020001F00041B4
:1006E80010EBD37041F100015EEA430E08BF20EA27
:1006F800D37070BDC4F1200500FA05F24EEA020E6F
:1007080020FA04F301FA05F243EA020321FA04F09D
:1007180001F0004121FA04F220EA020000EBD37054
:100728005EEA430E08BF20EAD37070BD94F0000F54
:100738000FD101F00046400041EB010111F4801F88
:1007480008BF013CF7D041EA060195F0000F18BF39
:10075800704703F00046520043EB030313F4801F75
:1007680008BF013DF7D043EA0603704794EA0C0F2F
:100778000CEA135518BF95EA0C0F0CD050EA410645
:1007880018BF52EA4306D1D181EA030101F00041C2
:100798004FF0000070BD50EA410606BF10461946EA
:1007A80052EA430619D094EA0C0F02D150EA0136F6
:1007B80013D195EA0C0F05D152EA03361CBF104637
:1007C80019460AD181EA030101F0004141F0FE41D6
:1007D80041F470014FF0000070BD41F0FE4141F45A
:1007E800780170BD70B54FF0FF0C4CF4E06C1CEA5A
:1007F80011541DBF1CEA135594EA0C0F95EA0C0F0F
:1008080000F0A7F8A4EB050481EA030E52EA0335C9
:100818004FEA013100F088804FEA03334FF08055EA
:1008280045EA131343EA12634FEA022245EA111517
:1008380045EA10654FEA00260EF000419D4208BFC8
:10084800964244F1FD0404F5407402D25B084FEA75
:100858003202B61A65EB03055B084FEA32024FF421
:1008680080104FF4002CB6EB020E75EB030E22BF7E
:10087800B61A754640EA0C005B084FEA3202B6EB3E
:10088800020E75EB030E22BFB61A754640EA5C00ED
:100898005B084FEA3202B6EB020E75EB030E22BF7D
:1008A800B61A754640EA9C005B084FEA3202B6EB7E
:1008B800020E75EB030E22BFB61A754640EADC003D
:1008C80055EA060E18D04FEA051545EA16754FEA9F
:1008D80006164FEAC30343EA52734FEAC2025FEABD
:1008E8001C1CC0D111F4801F0BD141EA00014FF04C
:1008F80000004FF0004CB6E711F4801F04BF01431D
:100908000020B4F1FD0C88BFBCF5E06F3FF6AFAE38
:10091800B5EB030C04BFB6EB020C5FEA500C50F1C8
:10092800000041EB045170BD0EF0004E4EEA11314B
:1009380014EB5C04C2BFD4EB0C0541EA045170BD52
:1009480041F480114FF0000E013C90E645EA060E96
:100958008DE60CEA135594EA0C0F08BF95EA0C0FC4
:100968003FF43BAF94EA0C0F0AD150EA01347FF40C
:1009780034AF95EA0C0F7FF425AF104619462CE7E3
:1009880095EA0C0F06D152EA03353FF4FDAE104646
:10099800194622E750EA410618BF52EA43067FF497
:1009A800C5AE50EA41047FF40DAF52EA43057FF427
:1009B800EBAE12E74FF0FF3C06E000BF4FF0010C32
:1009C80002E000BF4FF0010C4DF804CD4FEA410C96
:1009D8007FEA6C5C4FEA430C18BF7FEA6C5C1BD063
:1009E80001B050EA410C0CBF52EA430C91EA030FE4
:1009F80002BF90EA020F0020704710F1000F91EA41
:100A0800030F58BF994208BF90422CBFD8176FEA0E
:100A1800E37040F0010070474FEA410C7FEA6C5CDC
:100A280002D150EA013C07D14FEA430C7FEA6C5CE3
:100A3800D6D152EA033CD3D05DF8040B704700BF0F
:100A48008446104662468C461946634600E000BF5D
:100A580001B5FFF7B7FF002848BF10F1000F01BD2F
:100A68004DF808EDFFF7F4FF0CBF012000205DF8FA
:100A780008FB00BF4DF808EDFFF7EAFF34BF01207F
:100A880000205DF808FB00BF4DF808EDFFF7E0FF18
:100A980094BF012000205DF808FB00BF4DF808ED69
:100AA800FFF7CEFF94BF012000205DF808FB00BFD0
:100AB8004DF808EDFFF7C4FF34BF012000205DF8B2
:100AC80008FB00BF4FEA410212F5001215D211D5FA
:100AD8006FF47873B3EB625212D94FEAC12343F033
:100AE800004343EA505311F0004F23FA02F018BFB5
:100AF800404270474FF00000704750EA013005D17E
:100B080011F0004008BF6FF0004070474FF0000040
:100B1800704700BF4FEA4102B2F1E04324BFB3F58A
:100B2800001CDCF1FE5C0DD901F0004C4FEAC0025C
:100B38004CEA5070B2F1004F40EB830008BF20F040
:100B48000100704711F0804F21D113F13872BCBFFA
:100B580001F00040704741F480114FEA5252C2F14F
:100B68001802C2F1200C10FA0CF320FA02F018BF98
:100B780040F001004FEAC1234FEAD32303FA0CFCEB
:100B880040EA0C0023FA02F34FEA4303CCE77FEA7A
:100B9800625307D150EA01331EBF4FF0FE4040F4C4
:100BA8004000704701F0004040F0FE4040F4000073
:100BB800704700BF80F0004002E000BF81F00041B4
:100BC80042001FBF5FEA410392EA030F7FEA226CEB
:100BD8007FEA236C6AD04FEA1262D2EB1363C1BF7B
:100BE800D218414048404140B8BF5B42192B88BFEA
:100BF800704710F0004F40F4000020F07F4018BF0D
:100C0800404211F0004F41F4000121F07F4118BF2C
:100C1800494292EA030F3FD0A2F1010241FA03FCD4
:100C280010EB0C00C3F1200301FA03F100F00043BC
:100C380002D5494260EB4000B0F5000F13D3B0F184
:100C4800807F06D340084FEA310102F10102FE2AF3
:100C580051D2B1F1004F40EBC25008BF20F0010063
:100C680040EA03007047490040EB000010F4000F11
:100C7800A2F10102EDD1B0FA80FCACF1080CB2EBA4
:100C88000C0200FA0CF0AABF00EBC2505242184303
:100C9800BCBFD0401843704792F0000F81F40001A8
:100CA80006BF80F400000132013BB5E74FEA41037B
:100CB8007FEA226C18BF7FEA236C21D092EA030FE7
:100CC80004D092F0000F08BF0846704790EA010F61
:100CD8001CBF0020704712F07F4F04D1400028BF8E
:100CE80040F00040704712F100723CBF00F5000070
:100CF800704700F0004343F0FE4040F400007047A6
:100D08007FEA226216BF08467FEA23630146420251
:100D180006BF5FEA412390EA010F40F48000704764
:100D28004FF0000304E000BF10F0004348BF40420A
:100D38005FEA000C08BF704743F0964301464FF046
:100D480000001CE050EA010208BF70474FF00003A2
:100D58000AE000BF50EA010208BF704711F00043E3
:100D680002D5404261EB41015FEA010C02BF8446B3
:100D78000146002043F0B64308BFA3F18053A3F512
:100D88000003BCFA8CF2083AA3EBC25310DB01FA59
:100D980002FC634400FA02FCC2F12002BCF1004FDD
:100DA80020FA02F243EB020008BF20F0010070476E
:100DB80002F1200201FA02FCC2F1200250EA4C00C2
:100DC80021FA02F243EB020008BF20EADC70704708
:100DD8004FF0FF0C1CEAD0521EBF1CEAD15392EA16
:100DE8000C0F93EA0C0F6FD01A4480EA010C4002F2
:100DF80018BF5FEA41211ED04FF0006343EA50104C
:100E080043EA5111A0FB01310CF00040B1F5000F8D
:100E18003EBF490041EAD3715B0040EA010062F13C
:100E28007F02FD2A1DD8B3F1004F40EBC25008BF26
:100E380020F00100704790F0000F0CF0004C08BF44
:100E480049024CEA502040EA51207F3AC2BFD2F111
:100E5800FF0340EAC250704740F400004FF000031F
:100E6800013A5DDC12F1190FDCBF00F00040704759
:100E7800C2F10002410021FA02F1C2F1200200FA97
:100E880002FC5FEA310040F1000053EA4C0308BF5E
:100E980020EADC70704792F0000F00F0004C02BFAF
:100EA800400010F4000F013AF9D040EA0C0093F02A
:100EB800000F01F0004C02BF490011F4000F013B84
:100EC800F9D041EA0C018FE70CEAD15392EA0C0FF2
:100ED80018BF93EA0C0F0AD030F0004C18BF31F05D
:100EE800004CD8D180EA010000F00040704790F033
:100EF800000F17BF90F0004F084691F0000F91F0D7
:100F0800004F14D092EA0C0F01D142020FD193EA9C
:100F18000C0F03D14B0218BF084608D180EA010024
:100F280000F0004040F0FE4040F40000704740F000
:100F3800FE4040F4400070474FF0FF0C1CEAD052CE
:100F48001EBF1CEAD15392EA0C0F93EA0C0F69D02A
:100F5800A2EB030280EA010C49024FEA402037D095
:100F68004FF0805343EA111143EA10130CF000408C
:100F78008B4238BF5B0042F17D024FF4000C8B427C
:100F880024BF5B1A40EA0C00B3EB510F24BFA3EB5C
:100F9800510340EA5C00B3EB910F24BFA3EB91032C
:100FA80040EA9C00B3EBD10F24BFA3EBD10340EA86
:100FB800DC001B0118BF5FEA1C1CE0D1FD2A3FF6CC
:100FC80050AF8B4240EBC25008BF20F00100704781
:100FD8000CF0004C4CEA50207F32C2BFD2F1FF0324
:100FE80040EAC250704740F400004FF00003013A55
:100FF80037E792F0000F00F0004C02BF400010F4F9
:10100800000F013AF9D040EA0C0093F0000F01F00C
:10101800004C02BF490011F4000F013BF9D041EA2E
:101028000C0195E70CEAD15392EA0C0F08D1420261
:101038007FF47DAF93EA0C0F7FF470AF084676E734
:1010480093EA0C0F04D14B023FF44CAF08466EE70D
:1010580030F0004C18BF31F0004CCAD130F00042DB
:101068007FF45CAF31F000437FF43CAF5FE700BF33
:101078004FF0FF3C06E000BF4FF0010C02E000BF5C
:101088004FF0010C4DF804CD4FEA40024FEA4103FE
:101098007FEA226C18BF7FEA236C11D001B052EAB4
:1010A800530C18BF90EA010F58BFB2EB030088BF7A
:1010B800C81738BF6FEAE17018BF40F001007047E9
:1010C8007FEA226C02D15FEA402C05D17FEA236CCB
:1010D800E4D15FEA412CE1D05DF8040B704700BF12
:1010E800844608466146FFE70FB5FFF7C9FF0028A9
:1010F80048BF10F1000F0FBD4DF808EDFFF7F4FFE2
:101108000CBF012000205DF808FB00BF4DF808ED7A
:10111800FFF7EAFF34BF012000205DF808FB00BF9D
:101128004DF808EDFFF7E0FF94BF012000205DF8BF
:1011380008FB00BF4DF808EDFFF7D2FF94BF012070
:1011480000205DF808FB00BF4DF808EDFFF7C8FF69
:1011580034BF012000205DF808FB00BF4FEA4002C1
:10116800B2F1FE4F0FD34FF09E03B3EB12620DD9CD
:101178004FEA002343F0004310F0004F23FA02F037
:1011880018BF404270474FF00000704712F1610FDE
:1011980001D1420205D110F0004008BF6FF00040B5
:1011A80070474FF00000704742000ED2B2F1FE4F78
:1011B8000BD34FF09E03B3EB126209D44FEA00231E
:1011C80043F0004323FA02F070474FF000007047E5
:1011D80012F1610F01D1420202D14FF0FF30704786
:1011E8004FF00000704700BF002103E00B4B5B5835
:1011F800435004310A480B4B42189A42F6D30A4A24
:1012080002E0002342F8043B084B9A42F9D301F06C
:10121800FBFB03F0F7FA00F043FC7047A448000812
:1012280000000020240000202400002018040020D2
:10123800FEE700000000000002222DE9F0479A4B6B
:101248009A4D5A602A68B2F57A7FC0F263814FF4EA
:101258007A72974F974B3E68974DA3FB06139B09ED
:1012680002FB13630BBBA889944C80B2FFF758FDAF
:101278009349FFF7ADFDFFF737F985A3D3E90023BD
:10128800FFF786F9804620688946FFF72DF982A383
:10129800D3E90023FFF77CF902460B46404649464E
:1012A800FEF7C4FFFFF736FC2060864B68891C6890
:1012B80080B2001BFFF706F979A3D3E90023FFF7F3
:1012C80067F900220023FFF7D5FB002840F0718161
:1012D800688980B2001BFFF7F5F871A3D3E90023F2
:1012E800FFF756F90022784BFFF7E2FB20B9774B5E
:1012F8001B68052B40F26F81754A536C23F4004339
:101308005364744B28891C6880B2001BFFF7DAF815
:1013180063A3D3E90023FFF73BF900220023FFF77B
:10132800A9FB002840F0F882288980B2001BFFF74B
:10133800C9F85BA3D3E90023FFF72AF90022624B1F
:10134800FFF7B6FB20B9614B1B68052B40F24E81B5
:10135800614A536C23F4004353646049604C8B68C2
:101368008A68896882F0400281F08001C1F3C01167
:1013780083F02003C2F3801202EB4102C3F340134F
:1013880003EB4203DFF8888114F803E0554B9968B2
:1013980098689A68C8F800E0D8F8003082F480525B
:1013A8000233C8F80030D8F800E04F4B80F40060F2
:1013B800C2F30032C0F3C02000EB420083FB0EC230
:1013C80081F48061C1F3802101EB4001A2EBEE7250
:1013D800615C02EB4202454CAEEB4202C8F80020C9
:1013E800216022684249023222602268DFF81CE14B
:1013F80083FB0203A3EBE27303EB4303A2EB430378
:101408002360D8F80000AA88EB880968DEF8005045
:1014180092B29BB2521A5B1B052807D8DFE810F07E
:10142800F50007000700C600C600F1000022314B96
:101438001A60314B013618683E6008B32F4B304AAA
:10144800A3FB061312681B0B0132B3FBF2F102FB7C
:101458001133ABB9B6FBF0F300FB1366002E00F0B6
:10146800D681284E3368D8F80020052A00F2AF82CA
:10147800DFE812F021011D01180113010F01CF004F
:1014880000221021204802F06BF8EAE7AFF3008051
:101498007B14AE47E17A843FAE47E17A14AEEF3F62
:1014A8007B14AE47E17A943F0000024054000020CC
:1014B80048000020D34D6210C00300200000002027
:1014C80017B9CE3C0400002000002E401C0000206C
:1014D8000034014008000020002C0140000C0140AD
:1014E8007C48000800100140ABAAAA2A5C00002032
:1014F8000C0000204C000020400000205917B7D1F4
:101508004400002060000020000801401000002076
:1015180058000020DFF844E3DFF844C3BEF8043085
:1015280001322A60DCF800209BB21344BEF8068022
:1015380003EBD3735B10BA4F1FFA88F5CCF8003071
:10154800BEF80080BEF80290BEF80A20BEF8083047
:10155800B44E1FFA83FE3B681FFA88F81D443368AF
:10156800B14C9844B148B24905EBD57508EBD87829
:101578006D104FEA68083D60C6F800802568066867
:101588000F681FFA89F992B24D4432440EEB0703F3
:1015980005EBD57502EBD27203EBD3736D105210C5
:1015A8005B10256002600B60BDE8F087A14A1360FC
:1015B8003FE7688980B2001BFEF784FF96A3D3E952
:1015C8000023FEF7E5FF00229B4BFFF753FA0028A4
:1015D8007FF492AE8BE6994B1B78002B3FF48CAED0
:1015E800974A536C43F4004353648AE6934B1B7841
:1015F800002B3FF4ADAE934A536C43F4004353645D
:10160800ABE68C499B1A0B6013E78A49D31A0B6027
:101618000FE74FF0000E5F42DFF848C2DCF8001019
:101628002268052A00F2CF81DFE802F02F2B27235A
:101638002003002548423268002A40F34B81824E3D
:10164800824A3668D8F8008008F1050882FB0892BB
:10165800A2EBE87202EB4202A8EB4202052A00F272
:10166800AD81DFE802F0C5C0BBCFCA2C4D420020D7
:10167800E1E74D4208460021DDE7084600254942DA
:10168800D9E70D4600204942D5E748420D461146A4
:10169800D1E7C3F1000E0027BEE7C3F1000E1F46D5
:1016A8000023B9E71F464FF0000E5B42B4E79E46A1
:1016B80000275B42B0E75F429E461346ACE74FF017
:1016C8000008C6F10009DCF800201E44002AC644C0
:1016D8004F4440F3DE805E4B5C4A1B682468053447
:1016E80082FB04C2A2EBE47202EB4202A4EB4202C8
:1016F800052A00F25E81DFE802F06C67635F5B0336
:101708000024C3F1000C40F2DE3296420B4425441B
:10171800604400F3BB80A2F2BC729642C0F20E8114
:1017280006F57A7640F2DE32454996454E6300F377
:10173800AA80A2F2BC729645C0F204810EF57A72B4
:1017480040F2DE313E4C8F42A26300F39980414A59
:101758009742C0F2F58007F57A7740F2DE323849D1
:101768009342CF6300F38980A2F2BC729342C0F225
:10177800F28003F57A7340F2DE32324995424B63C8
:1017880078DC344B9D42C0F2E48005F57A7540F26E
:10179800DE332C4A9842956366DCA3F2BC73984208
:1017A800C0F2D280274B00F57A70D863BDE8F08785
:1017B8005C424FF0000CA6E75C429C460023A2E77F
:1017C8009C4600245B429EE71C464FF0000C5B429F
:1017D80099E7C3F1000C1C46134694E7B1464FF055
:1017E800000876426FE7B0464FF0000976426AE794
:1017F800C6F10009B046164665E7C6F100084FF085
:10180800000960E7C6F10008B14600265BE7102131
:10181800114801F0A9FE24E67B14AE47E17A943F13
:1018280010000020140000201800002004000020F0
:10183800080000204C00002000002EC050000020AE
:1018480000340140002C014068000020ABAAAA2AFD
:101858006C00002022FCFFFF00080140C0030020AC
:101868000C0000206400002040F2C6705C4BD86376
:10187800BDE8F08740F2C67589E740F2C6737AE79B
:1018880040F2C67769E740F2C67259E740F2C67679
:1018980048E7544A544BD2F800C02268CCF10004FF
:1018A800013283FB0283A3EBE27303EB4303A2EB56
:1018B8004303052B7DD801A252F823F00F17000827
:1018C800B3190008AB190008A119000897190008F6
:1018D80091190008454A444ED2F80090D8F80020E3
:1018E800C9F10008013286FB02A6A6EBE27606EBF8
:1018F8004606A2EB4606052E60D801A252F826F04D
:10190800CF160008891900087F1900087519000802
:101918006B19000863190008288980B2001BFEF7BC
:10192800D1FD2DA3D3E90023FEF732FE0022304B70
:10193800FFF7A0F800287FF40BAD04E50A26F1E6CE
:101948000A270AE70A22FBE60A20254BD863BDE8E6
:10195800F0870A251BE70A230DE746464FF00008E3
:10196800B1E64646C8464FF00009ACE642460026B6
:10197800C8469146A7E64E46C1464FF00008A2E683
:101988004E464FF000099EE623460024BBE6234658
:1019980064464FF0000CB6E622460023644694469F
:1019A800B1E66346A4460024ADE663464FF0000C5A
:1019B800A9E64FF0000C64466346A4E64FF0000920
:1019C800C8464E467FE600200546014633E6002716
:1019D800BE463B4620E600BF7B14AE47E17A943F03
:1019E800002C01406C000020ABAAAA2A6800002045
:1019F80000002EC0014B23F810107047E8000020AB
:101A0800704700BF002408B5064D2C7064200134CF
:101A180001F042F8082CF8D100222021024801F0F8
:101A28009FFDFEE7400000200008014030B501217D
:101A38000224002510224FF4601397B00CA81091CF
:101A4800119215930C941394149501F093FD0F22A1
:101A58004FF48063214601A80192049302940395F0
:101A6800059501F073FF4FF4404306A808930694C8
:101A780002F08CF802F044F8084BA3FB0030800910
:101A880001F094FA042001F0A9FA2A4629464FF0F9
:101A9800FF3001F049FA17B030BD00BFD34D6210D6
:101AA8002DE9F04F584D89B000F0D6FFAB690320FF
:101AB80043F00103AB61AB69082403F0010307930A
:101AC800079B01F01FFA00226FF00B00114601F08E
:101AD8002BFA00226FF00A00114601F025FA0022C5
:101AE8006FF00900114601F01FFA00226FF00400A0
:101AF800114601F019FA00226FF00300114601F0B7
:101B080013FA00226FF00100114601F00DFA0022CD
:101B18004FF0FF30114601F007FAFFF787FF6B69B6
:101B280023F001036B6100F04FFC00F05BFD00F057
:101B380051FE00F0EBFE01222021344801F010FD97
:101B4800334801F081F8334801F07EF8324B6420C5
:101B58001C70013C00F0A0FF631CF7D100242E4B41
:101B6800012204212D481C7001F0FAFC00F09CFBB6
:101B780018222B492B4802F067FD2B4B0494188A36
:101B8800DFF89CA080B2FFF7CBF80123274ADFF8E3
:101B9800B4B0DFF8B480DFF8B49005900394137004
:101BA800052000F079FF224B1B78002B00F09F8264
:101BB800204B1C682046FFF7B3F81F49FFF7B0FA1F
:101BC800002800F0B382A01CFFF7AAF8FFF7ECFA90
:101BD800184B1860194B1B78002B00F09782184B94
:101BE8001C682046FFF79CF81349FFF799FA00286C
:101BF80000F07A82A01CFFF793F8FFF7D5FA104B94
:101C08001860012328E000BF0010024000080140CE
:101C18004C0300208802002040000020000C0140F6
:101C280010020020F8000020C0030020500000200F
:101C3800740000207800002000007A447C00002016
:101C480080000020380200206C00002004020020E0
:101C58005A1C122A13466FD0591E1AF80120FF2A5F
:101C6800F6D11AF80320FE2AF2D15A1D981D1AF847
:101C780002401AF800005A1C1AF801101AF803500A
:101C88009F1C1AF8026029441AF807503144DE1CD8
:101C9800294404331AF8065040EA04201AF803408D
:101CA8002944214489B28842D3D11AF802001AF88B
:101CB80007201AF8064042EA00221AF80300BE4933
:101CC80040EA0420BD4C4A8012B2A24203B2B8BF17
:101CD8002246A342B8BF2346B2F57A7FA8BF4FF485
:101CE8007A72B3F57A7FA8BF4FF47A738880B449C3
:101CF800B44C0A60B44A136000F0C8FEB34B1860D5
:101D0800204602F0EBFC0028FAD1CAF80000CAF815
:101D18000400CAF80800CAF80C00CAF81000CAF88B
:101D2800140000F0C1FAAA4DA64C182229462046F4
:101D380002F08AFC0028F8D100F0A8FEA34B1B682B
:101D4800C01AC82840F2B98100260027002334466B
:101D58003D469B4A13609C4A136000239D4A1068C5
:101D68009D4A1360FEF7AEFB8DA3D3E90023FEF76F
:101D78000FFC22462B46FEF759FAFEF7A3FE04464F
:101D8800944BDBF800001C60FEF79CFB84A3D3E9AE
:101D98000023FEF7FDFB32463B46FEF747FAFEF707
:101DA80091FECBF80000FEF78DFBCDE9000120463F
:101DB800FEF788FB0022894BFEF7EAFB02460B463A
:101DC80006460F46DDE90001FEF72EFA0022844B95
:101DD80004460D46FEF758FE002800F0428172A323
:101DE800D3E9002320462946FEF758FE10B96EA510
:101DF800D5E9004520462946FEF764FE32463B46B3
:101E08000446DDE90001FEF711FA0022744B06468C
:101E18000F46FEF739FE002800F00E8262A3D3E9D0
:101E2800002330463946FEF739FE10B95EA7D7E9D8
:101E3800006730463946FEF745FE054640F2523304
:101E48009C4200F38881D8F80000FEF73BFB58A3BA
:101E5800D3E90023FEF79CFBFEF734FEC8F8000028
:101E680040F252339D4200F3E1805E4B1868FEF762
:101E780029FB4FA3D3E90023FEF78AFBFEF722FED6
:101E8800584B1860039A13463133AB4215DBA2F165
:101E98003103AB4211DC049A13463133A3420CDB05
:101EA800A2F13103A34208DC4B4B1B68042B04D876
:101EB8004D494E4A6B420C601360D9F800204C4BD8
:101EC800A3FB0213DB0803EB830303EB83039A42B0
:101ED80000F05F810221474801F03CFB002845D013
:101EE800D8F80030002B41D13E4B1B68002B3DD168
:101EF800414A404E13700221304601F02BFB002866
:101F0800F9D1DBF800301333262B3CD93B4B1E6844
:101F18003B493046FFF7FAF800287BD0304639496C
:101F2800FFF712F9002875D00522062336490A70F2
:101F3800364A137085EAE573A3EBE573322B29DC87
:101F480084EAE473A3EBE473322B23DCD9F8003082
:101F58002F4A01339342C9F8003004D9DBF8003026
:101F68001333262B0FD90494039519E6234B2549DF
:101F78001E683046FFF7CAF80028C9D0DBF80030E1
:101F88001333262BC4D80023204A13701A4A13701F
:101F9800FFF738FD0023C9F80030E4E7AFF300800D
:101FA800CDCCCCCCCCCCEC3F0000000000408FC0A6
:101FB800666666666666EE3F0802002018FCFFFF4C
:101FC80040020020F80000202C02002070000020B1
:101FD80010020020300200201C0000200000E03F1A
:101FE80000408F406800002064000020600000204E
:101FF8001F85EB5100080140500000200000002020
:1020080000000C42CCCC06424000002044000020D6
:1020180080380100DBF80030323380F2B4800522CA
:10202800012391490A70914A137083E7904B18680D
:10203800FEF748FA82A3D3E90023FEF7A9FA8D4BED
:102048000022FEF7F3F8FEF73DFD894B18601B6888
:10205800B3F5E17F7FF716AF4FF4E173844A13605D
:1020680010E73246DDE900013B46FEF7DFF80022C3
:10207800814B04460D46FEF707FD002859D1D8F8D4
:102088000000FEF71FFA6EA3D3E90023FEF780FADB
:10209800784B0022FEF7CAF8FEF714FD4FF47A7465
:1020A800C8F80000D8F800302546B3F5E17FBDDD5B
:1020B8004FF4E173C8F80030D2E6704B1868FEF7A9
:1020C80001FA61A3D3E90023FEF762FA6C4B0446D8
:1020D80018680D46FEF7F6F95BA3D3E90023FEF76F
:1020E80057FA06460F4638E64FF47A7087E5654B8F
:1020F8001C682046FEF714FE6349FFF711F8A8B1E3
:10210800A01EFEF70DFEFFF74FF861E55F4B1C6858
:102118002046FEF705FE5C49FFF702F80028E3D0E9
:10212800A01EFEF7FDFDFFF73FF868E54FF47A7053
:102138004EE547A3D3E9002320462946FEF7AEFC27
:1021480010B943A5D5E9004520462946FEF7BAFC53
:102158004FF47A740546D8F80000FEF7B3F938A3AF
:10216800D3E90023FEF714FA424B0022FEF75EF88B
:10217800FEF7A8FCC8F80000D8F80030B3F5E17FF6
:102188007FF76EAE94E70023374A1370374A13700F
:10219800D0E63F4B188A80B2FEF7C2FDFEF7A4F9DD
:1021A8002DA3D3E90023FEF7F3F9064605980F4659
:1021B800FEF79AF92AA3D3E90023FEF7E9F90246C4
:1021C8000B4630463946FEF731F8FEF7A3FC2146A8
:1021D800064605900220FFF70DFC29460320FFF76D
:1021E80009FC2B4B0420998989B2FFF703FC294B82
:1021F80029491868FEF7ECFDFEF7B0FF01460520F7
:10220800FFF7F8FB3046FEF7A9FF01460620FFF767
:10221800F1FB30462149FEF7D1FC2149FEF7D8FDF4
:102228002049FEF7CDFCFEF799FF01460720FFF78E
:10223800E1FBFFF7E5FB4DE64FF47A75FEE500BFDD
:10224800D7A3703D0AD7EF3F9A9999999999B93FC1
:102258000000000000408FC07B14AE47E17A843F45
:10226800AE47E17A14AEEF3F400000204400002062
:10227800680000200000024000408F40400200201B
:102288002C0200207800002000007A448000002002
:10229800C0030020000000200000C84200E0CE4437
:1022A800083748BE33330F422DE9F0413F4E88B01E
:1022B800F369062243F40033F361F369052103F45B
:1022C800003300931020009B00F02EFE102000F039
:1022D80061FE07220521112000F026FE11200024AE
:1022E80000F058FE4FF496410C23314D314A2846F0
:1022F80069602A606B61AC60EC602C61AC61EC6178
:1023080002F072F9012004210322022773694FF0B9
:10231800800803437361736903400193019BB369A8
:102328000B43B361B3690B400293029BF36943F417
:102338000033F361F369A6F5843603F4003303939D
:1023480006900491304604A90792039B059700F074
:10235800E7FF082304A930460493059400F0E0FF42
:102368002023154F154A38463A60BB617C60BC6033
:102378003C617C61FC61C7F80C8000F041FE1023D1
:102388000F4E104A30466F637D62C6F80C80B46009
:1023980034617461B461F46186E80C0000F030FEC9
:1023A8002E63756208B0BDE8F08100BF00100240DE
:1023B800F800002000440040440200206C00024065
:1023C8007C0300208000024020222DE9F04F4FF0CE
:1023D80002080026804B8BB099690AAC41F00401D1
:1023E800996199697D4F01F00401039103999969F5
:1023F800384641F00801996199694FF0800B01F066
:102408000801049104999969754D41F01001996189
:102418009B6944F8102D03F010030593214601929F
:10242800059B07960896CDF8248000F079FF402395
:1024380021463846069300F073FF21463846CDF80A
:1024480018B000F06DFF4FF48063214628460693CC
:1024580000F066FF4FF400634FF4805A2146284687
:1024680006F1804606F58436069300F059FF2146AA
:102478002846CDF818A000F053FF21463046CDF885
:1024880018A000F04DFF214630464FF00109CDF865
:10249800188000F045FF0423214638460693CDF8FE
:1024A8001C9000F03DFF102321463046069300F0B3
:1024B80037FF019A21463046069200F031FF032388
:1024C800214628460793CDF8189000F029FF2146A9
:1024D8003046CDF8189000F023FF082321462846FF
:1024E800069300F01DFF21462846CDF8188000F01D
:1024F80017FF102321462846069300F011FF019A82
:1025080021462846069200F00BFF04232146284660
:10251800069300F005FF082321463046069300F095
:10252800FFFE042321463046069300F0F9FE4023BF
:102538004FF4807A214628460693CDF81C8000F097
:10254800EFFE21462846CDF818B000F0E9FE2846EF
:102558002146CDF818A000F0E3FE21463046CDF81C
:1025680018B000F0DDFE21463846CDF8189000F08E
:10257800D7FE21463846CDF8188000F0D1FE214616
:102588003046CDF818A000F0CBFE4FF4007321467A
:102598003046069300F0C4FE4FF48063304621466F
:1025A800069300F0BDFE4FF40053214638460693CB
:1025B80000F0B6FE4FF4804321463846069300F0FB
:1025C800AFFE4FF4004321463846069300F0A8FEBC
:1025D8000BB0BDE8F08F00BF00100240000C0140B6
:1025E800001001402DE9F04F00244FF020084FF46F
:1025F800FA63734A9BB09169724E41F4006191612C
:102608009169DFF8C89101F4006103910399916918
:10261800746041F4005191619269304602F40052AD
:102628000492F3600193049A34617461B461C6F84A
:102638000090C6F8088001F0A9FB102205A93046D1
:1026480008274FF0600B0592069401F093FE4FF4B3
:10265800007322460CA9304612930D940E941094E0
:102668001194CDF830B00F9701F01EFC0CA930463C
:10267800042201F019FC3A460CA9304601F014FC7A
:102688004FF4006313934FF480634F4D13A9304602
:10269800DFF83CA114931594CDF85880179418943A
:1026A800199401F03DFE019B2846EB606C60C5F86B
:1026B80008802C616C61AC61C5F800A001F066FB74
:1026C800802305A928460693CDF8148001F052FE10
:1026D80005231AA941F84C3D2846089401F0E6FC68
:1026E8004FF4007322460CA928461293CDF830B057
:1026F8000D940E940F971094119401F0D5FB0CA92A
:102708002846042201F0D0FB3A460CA9284601F0DD
:10271800CBFB4FF4006313934FF4806313A928464F
:1027280014931594CDF8588017941894199401F0BF
:10273800F7FDDAF84430214623F40043CAF8443060
:10274800D9F84430284623F40043C9F8443001F04E
:1027580089FB2846042101F085FB3946284601F00B
:1027680081FB2146284601F0C5FD2846042101F0D9
:10277800C1FD3946284601F0BDFD2146304601F02D
:1027880071FB3046042101F06DFB3946304601F0FB
:1027980069FB2146304601F0ADFD3046042101F0C9
:1027A800A9FD3946304601F0A5FD01212B683268A4
:1027B800196313680B4313601BB0BDE8F08F00BFAB
:1027C800001002400C030020D4030020002C01401C
:1027D800003401402DE9F0434FF48077444E002542
:1027E8004FF005084FF44022B369424C43F400739C
:1027F800B361B369A7604FF4C02787B03E4903F4BB
:10280800007301932046019B2160E261E5606561E8
:102818006560C4F8108000F053F9384A06A9536877
:10282800204643F48023536041F8187D00F034FBC0
:1028380001230E224FF0020903A9204603920593B3
:10284800049300F099FA03A920460B270395CDF8C5
:10285800109000F091FA032303A920460493CDF8C1
:102868001490039700F088FA0C2204230DEB020160
:1028780020460392049300F07FFA0722102303A94D
:10288800204605920393CDF8108000F075FA40F6C3
:10289800A22E21681A4B8A68DFF86CC042F4000245
:1028A80042F480728A608A68164C42F001028A609B
:1028B80071692A4641F0010171617069294600F089
:1028C8000100029002981D60C3F804809C60C3F860
:1028D8000CC0C3F800E01C68384644F001041C60D2
:1028E80000F022FB384600F055FB07B0BDE8F08346
:1028F800001002404C030020002401400000014069
:10290800080002404C240140C00300204FF48070AE
:10291800F0B5002305274FF46025264A264C916917
:10292800A06041F480619161926985B0234902F405
:10293800806200922046009A2160E561E36063614D
:102948006360276100F0BCF80F22012301A920462B
:10295800019202250393029300F00EFA0D2301A9B8
:10296800204601930326029500F006FA0A2301A9DE
:10297800204601930395029600F0FEF904232046B1
:102988000DEB03010293019500F0F6F9072301A965
:10299800204603930297019600F0EEF923689A689F
:1029A80042F480729A609A6842F001029A6005B017
:1029B800F0BD00BF0010024088020020002801403E
:1029C800704700BFFEE700BFFEE700BFFEE700BF9D
:1029D800FEE700BF704700BF704700BF704700BFE9
:1029E80008B500F04BF8BDE8084000F005BB00BF93
:1029F800014800F0AFBB00BF44020020014800F0CE
:102A0800A9BB00BF7C03002030B44FF41F054FF072
:102A180000640E4B0E4A19680E4841F00101196016
:102A280059680A405A601A6822F0847222F4803287
:102A38001A601A6822F480221A605A6822F4FE0288
:102A48005A609D60846030BC704700BF001002402F
:102A58000000FFF800ED00E0074A08B513680320FE
:102A680043F01003136000F04DFA002001F0ACFCB5
:102A780000F07EFD002008BD00200240024A1368D5
:102A880001331360704700BF14040020014B18681D
:102A9800704700BF1404002030B583B00190FFF7E1
:102AA800F5FF0546019C631C18BF0134FFF7EEFFD4
:102AB800401BA042FAD303B030BD00BF704700BF2F
:102AC80000287DD0836A70B504463BB323689A68B2
:102AD800D10709D4A26A12F0100225D0A36A0120F6
:102AE80043F01003A36270BD9A6822F001029A6055
:102AF800FFF7CCFF054623689A68D207EAD5FFF7A7
:102B0800C5FF401B0228F6D9A36A43F01003A3624D
:102B1800E36A43F00103E362A36ADFE7C36280F874
:102B28002430FFF7CBFFD1E7A16A444821F488514C
:102B380021F0020141F002018342A162E569616866
:102B480069D0E668A06841EA4601B0F5807F41EAAD
:102B5800050123D001283ED06569012D41D000250B
:102B68005868374A20F469405860986802400A4318
:102B78009A60DA6A334822F470022A43DA629B6860
:102B8800184081421ED00120A36A23F0120343F0AB
:102B98001003A362E36A0343E36270BD6269012A1A
:102BA80048D05868264A20F4694040F4807058603C
:102BB800986802400A439A602269013A1505D8E7E5
:102BC800012070470020E062A36A23F0030343F06A
:102BD8000103A36270BD6269012A08BF4FF48072C5
:102BE800DFD1F6B9A569013D42EA453242F40062F7
:102BF8005E68134D26F4694632435A609A68B0F508
:102C0800807F05EA020545EA01059D60D4D00128C8
:102C1800D2D00025ADE7B5F5402F08BF4FF4002509
:102C28008FE7A56A45F02005A562E56A45F001052C
:102C3800E562DDE70246002EF3D1D3E7003C014010
:102C4800FDF7E1FFFE0E1FFF90F82430012B01D1A4
:102C5800022070470023012170B5026882B00193F9
:102C68009368054680F82410D80720D43E4B3F4887
:102C78001B689168A0FB030341F001019B0C916064
:102C88000193019B2BB1019B013B0193019B002BFD
:102C9800F9D1FFF7FBFE064604E0FFF7F7FE801BBD
:102CA800022845D82A68946814F00104F5D0AB6A64
:102CB8002F4923F4407323F0010343F480738A42BD
:102CC800AB6222D0AB6A23F48013AB625368590518
:102CD80027D4AB6A002113F4805318BFEB6A85F838
:102CE800241018BF23F00603EB626FF00203136091
:102CF800936803F46023B3F5602F25D00020936810
:102D080043F48013936002B070BD1A4B596811F4F4
:102D1800702FD7D0A96A41F48011A9625B685B055E
:102D2800D7D5AB6A23F4405343F48053AB62D0E762
:102D38000120AB6A85F8244043F01003AB62EB6ACC
:102D48000343EB6202B070BD094B9A4205D0936809
:102D5800002043F4A0039360D5E7A3F580635B6884
:102D680013F4702FCAD1F2E72000002083DE1B4342
:102D780000280140002401400246002070B492F867
:102D8800243083B0012B019054D001204B681F26BA
:102D9800062B82F82400146824D803EB8303053B30
:102DA800656B08689E4025EA060500FA03F32B4385
:102DB8006363092826D9072600EB40038D681E3B6C
:102DC800E1689E409D4021EA06032B43E360A0F1A1
:102DD8001003012B25D90020002382F8243003B0EA
:102DE80070BC70470C2B03EB830327D80868233B80
:102DF800256B9E4025EA060500FA03F32B430928B4
:102E08002363D8D80725896800EB40062369B540B5
:102E1800B14023EA05030B432361A0F11003012B02
:102E2800D9D81A4B9C4214D0936A012043F020034E
:102E38009362D1E7022003B070BC7047413BE56A5A
:102E480008689E4025EA060500FA03F32B43E3626F
:102E5800AFE7A3681B02BED4A368102843F400039D
:102E6800A360B8D10A4B0B491B68A1FB03139B0C49
:102E780003EB83035B000193019B002BABD0019B09
:102E8800013B0193019B002BF9D1A4E700240140E9
:102E98002000002083DE1B4390F82420012A23D041
:102EA800034601201A6883F824009068C00712D4EA
:102EB8001248806810F001000DD130B4104CA242C5
:102EC80014D001209A6A42F020029A62002230BC93
:102ED80083F8242070479A6A012042F020029A62FF
:102EE800002283F8242070470220704754680D6838
:102EF80024F4702129435160E8E700BF002801400D
:102F0800002401404FF6FF01064A0002D36800F48E
:102F1800E0600B4043F0BF6343F400330343D360E6
:102F2800704700BF00ED00E0184B70B4DC68C4F3D4
:102F38000224C4F10706042E04F1040328BF042662
:102F4800062B17D90125033CA540013D2A40012342
:102F5800B340013B1940A140002841EA02010CDBC3
:102F6800090100F16040C9B200F5614080F8001322
:102F780070BC704700221446E9E7054B00F00F00CB
:102F88000901C9B20344197670BC704700ED00E02E
:102F9800FCEC00E0012300F01F01034A40098B40CC
:102FA80042F82030704700BF00E100E00138B0F17E
:102FB800807F0DD230B4F02500220721054B064C46
:102FC800586084F82350104630BC9A6019607047E6
:102FD8000120704710E000E000ED00E0044A0428FA
:102FE80013680CBF43F0040323F004031360704715
:102FF80010E000E0704700BF08B5FFF7FBFF08BD11
:1030080000283AD0F0B41E4A0568034695422BD9E9
:103018001C491D4A2944A2FB01211C4E09098900AB
:103028000024012798685A68DE63DE68024318693D
:1030380032435E69024332439E6928683243DE693F
:1030480020F47F50324320F03000024319642046B8
:103058002A609C62DC621C635C639C6383F820408A
:1030680083F82170F0BC70470949074A2944A2FB3C
:10307800012109098900074ED2E70120704700BFE6
:1030880007040240F8FBFDBFCDCCCCCC00040240C5
:10309800F8FFFDBF00000240F0B590F82040012C79
:1030A8000CD0012590F8214080F82050AC4208D07F
:1030B8000022022380F820201846F0BD022318467B
:1030C800F0BD00264FF0020C056886632E68076C79
:1030D800D0F83CE0BC4026F00106476880F821C0E3
:1030E8002E60CEF804406B60C36A102F0BBFAA6035
:1030F800A960E960EA604BB12B6843F00E032B60CE
:103108002A68002342F001022A60D5E72B6823F0E1
:1031180004032B602B6843F00A032B60F0E700BF21
:10312800034670B4012500240268016C1068DE6B48
:1031380020F00E001060106805FA01F120F001007F
:1031480010607160204683F8215083F8204070BCDD
:10315800704700BF0422F0B4C66B016C3468036882
:103168008A4022421D682BD06F0729D51A6892061B
:1031780003D41A6822F004021A60644A93426DD894
:1031880063498B4200F0868014318B4200F08680C0
:1031980014318B427BD014318B4200F0978014316C
:1031A8008B4200F0998014318B4200F09B8093424F
:1031B80014BF4FF480234FF08063564A53605FE09A
:1031C80002228A4022422FD0AF072DD51A689106D5
:1031D80006D401211A6822F00A021A6080F8211028
:1031E8004A4A93425FD84A498B4255D014318B42A0
:1031F8004BD014318B4253D014318B4269D01431E7
:103208008B426CD014318B426FD0934214BF4FF471
:1032180000334FF000733F4A53600022836A80F8FE
:103228002020CBB9F0BC704708228A402242F9D04E
:103238002A07F7D5012200271C68056B24F00E0425
:1032480002FA01F11C607160826380F8212080F825
:103258002070002DE6D02B46F0BC18472E4A93422A
:1032680046D01432934247D01432934248D0143295
:1032780093420CBF4FF480424FF48022274B5A6090
:10328800C36A002BCED0F0BC18472023C3E74FF405
:10329800806392E7042390E70223BCE740238CE78E
:1032A8004FF40073B7E71C4A934223D01432934279
:1032B80024D01432934226D0143293420CBF4FF4D8
:1032C80000524FF40032154B5A60A6E74FF4804382
:1032D80073E74FF400539EE74FF480236DE74FF4F4
:1032E800003398E74FF4800367E74FF4001392E741
:1032F8000422C3E70222E6E74022BFE72022E2E7F2
:103308004FF48062BAE74FF40072DCE780000240B5
:103318000800024000000240080402400004024085
:103328002DE9F04F4FF0000883B043466FF01F06B9
:10333800DFF810E2DFF810C205E00133102B06F1C8
:10334800040600F0988001220C689A401440A242BA
:10335800F3D14D68122D00F0B38000F29B80022D4E
:1033680000F0B58040F28F80032D00F0AD80112D64
:1033780002D1CA6802F10408FF2C7FD8814602688E
:103388004FEA830A0F2505FA0AFB22EA0B0208FA1C
:103398000AFA42EA0A02C9F80020D1F804A01AF091
:1033A800805FCAD0DEF8189023F0030249F00109C3
:1033B800CEF81890DEF8189002F1804209F0010961
:1033C800CDF8049002F5803203F00309DDF804B06B
:1033D8004FEA8909D2F808B005FA09F560452BEAE1
:1033E800050700F08980504DA84200F088804F4DB5
:1033F800A84200F089804E4DA84200F08A804D4DC9
:10340800A84200F08B804C4DA8420CBF4FF0050B32
:103418004FF0060B0BFA09F947EA09059560474A88
:103428001AF4803F1268454D14BF2243A2432A6014
:10343800424A1AF4003F5268404D14BF2243A24347
:103448006A603E4A1AF4801F92683C4D14BF2243BA
:10345800A243AA60394A1AF4001FD26803F1010393
:1034680014BF144322EA0404344A102BD46006F132
:1034780004067FF468AF03B0BDE8F08FB246426837
:1034880000F104097EE7B5B1012D7FF475AFD1F8DD
:103498000C8071E72A4FBD420DD01CD9DFF8AC90E3
:1034A8004D4508D009F580394D4504D0A9F5801956
:1034B8004D457FF461AF8D68BDB94FF004085BE7F7
:1034C800CA6802F10C0857E74FF0000854E7CA68C9
:1034D80002F1080850E7DFF878904D45EBD009F580
:1034E80080394D457FF448AFE5E7012D0CBF0261F7
:1034F80042614FF008083FE74FF000098CE74FF0B2
:10350800010B0BFA09F987E74FF0020B0BFA09F9DF
:1035180082E74FF0030B0BFA09F97DE74FF0040B34
:103528000BFA09F978E700BF000C014000100140D0
:103538000014014000180140001C01400004014033
:103548000000211000100240000801400000311066
:10355800000011108368194214BF01200020704731
:1035680002B9090401617047C3685940C1607047D6
:10357800704700BF2DE9F041036882B0DD070446BB
:1035880030D5AD494A6802F00C02042A00F0FA80EE
:103598004A6802F00C02082A00F0F0806368B3F56C
:1035A800803F00F07481002B00F00481B3F5A02F58
:1035B80000F0A981A04B1A6822F480321A601A68B8
:1035C80022F480221A60FFF761FA9B4D064605E057
:1035D800FFF75CFA801B642800F217812B689A03B6
:1035E800F6D523689F0728D5934A516811F00C0F28
:1035F80000F0A980516801F00C01082900F09F80B3
:103608002369002B00F0328101228C4B8A4D1A600D
:10361800FFF73CFA064605E0FFF738FA801B022858
:1036280000F2F3802B689807F6D52B68626923F0BF
:10363800F80343EAC2032B6023681A075DD45D07C9
:103648003AD57D4BDA69D00000F1A6800125DA6908
:1036580042F08052DA61DB6903F080530093009BEB
:10366800774B1A68D10540F1BF80E368012B00F061
:103678001481002B00F0CD80052B6F4B1A6A00F0E7
:103688004F8122F001021A621A6A22F004021A62B9
:10369800FFF7FCF9684E804641F2883706E0FFF7ED
:1036A800F5F9A0EB0800B84200F2AF80336A9B0737
:1036B800F5D5002D40F0F780E369D3B15E4D6A6817
:1036C80002F00C02082A45D0022B4FF000025D4B95
:1036D80000F0EF801A60FFF7D9F92C46054605E09F
:1036E800FFF7D4F9401B022800F28F8023689B0162
:1036F800F6D4002002B0BDE8F081A369002B2DD0DC
:103708000122514B4C4D1A60FFF7C0F9064604E000
:10371800FFF7BCF9801B022877D86B6A9B07F7D59F
:103728004A4B4B4A1B68A2FB03235B0A019300BF69
:10373800019B5A1E0192002BF9D123687FE752683A
:10374800D6033FF55DAF3C4A1268950726D5226936
:10375800012A23D0012002B0BDE8F0813A4A364D53
:103768001360FFF793F9064604E0FFF78FF9801B13
:1037780002284AD86B6A9F07F7D4DEE74A68D00365
:103788007FF50CAF2C4A126891037FF52BAF626866
:10379800002A7FF427AFDDE7002561E72649606945
:1037A8000A6822F0F80242EAC0020A601A077FF5A6
:1037B80046AFA2E703F1804303F504331A681D46B8
:1037C80022F480321A601A6822F480221A60FFF705
:1037D8005DF9064604E0FFF759F9801B642814D800
:1037E8002B689B03F7D4FCE61A681E4642F48072E5
:1037F8001A60FFF74BF907463368DA053FF535AF2E
:10380800FFF744F9C01B6428F6D9032002B0BDE8CD
:10381800F08103F1804303F504331A6A1E4622F04F
:1038280001021A621A6A41F2883822F004021A6206
:10383800FFF72CF9074612E0001002400000424250
:103848000070004060004242800442422000002094
:10385800D34D6210FFF71AF9C01B4045D5D8336A1B
:103868009807F7D4002D3FF427AF1CE0344A354DB4
:103878001360FFF70BF9064604E0FFF707F9801B12
:103888000228C2D82B689907F7D42368D5E62D4AB1
:10389800136843F48033136095E62A4A136A43F0A9
:1038A80001031362F4E6274AD36923F08053D361F6
:1038B80002E71A60FFF7EAF8064604E0FFF7E6F8C1
:1038C800801B0228A1D82B689901F7D4226AB2F587
:1038D800803F2DD001251B4B606A5968024321F4B3
:1038E800741119480A435A6005601C46FFF7CEF860
:1038F800054604E0FFF7CAF8401B022885D823686C
:103908009A01F7D5F5E603F18043A3F53C331A682D
:1039180042F480221A601A6842F480321A6052E631
:1039280042F004021A621A6A42F001021A62AFE611
:103938006B68A16823F400330B436B60CAE700BFD0
:10394800000042420010024060004242654A13688B
:1039580003F007038B420BD2136823F007030B43D2
:103968001360136803F00703994201D001207047E0
:103978002DE9F041036886B09C0706D55A4C856846
:10398800626822F0F0022A436260DA0706460C46B3
:1039980024D54268544B012A1B6800F09280022A01
:1039A80000F087809D0729D54F4D41F288386B6814
:1039B80023F0030313436B60FFF768F87368074647
:1039C800012B65D0022B05D16DE0FFF75FF8C01B16
:1039D800404572D86B6813F00C0FF6D1414A136852
:1039E80003F007039C420DD2136823F00703234317
:1039F8001360136803F007039C4203D0012006B04C
:103A0800BDE8F0813368580706D53749F0684A6839
:103A180022F4E06202434A60190707D5324A316945
:103A2800536823F4605343EAC10353600126022517
:103A38002E4B06AF0FCB07E90F002B4C8DF8046017
:103A48008DF80550626802F00C03082B0AD1C2F306
:103A580083433B44D20313F8103C36D4244A02FB78
:103A680003F300E0234B204A234852682349C2F35A
:103A78000312825C0020D3400B6000F0A5FC0020FC
:103A880006B0BDE8F081FFF701F8C01B404514D827
:103A98006B6803F00C03042BF5D19FE7FEF7F6FFE4
:103AA800C01B404509D86B6803F00C03082BF5D1FF
:103AB80094E79F013FF578AFA0E7032006B0BDE883
:103AC800F0819B033FF570AF98E762680949C2F33C
:103AD80040423A4412F8142CB1FBF2F203FB02F311
:103AE800C1E700BF00200240001002406C480008F7
:103AF80000093D0000127A008448000820000020D8
:103B0800014B1868704700BF20000020044B05498E
:103B18005B68054AC3F30223CB5C1068D840704742
:103B2800001002409448000820000020044B05497A
:103B38005B68054AC3F3C223CB5C1068D840704762
:103B48000010024094480008200000200F220D4B6E
:103B580002605A6810B402F0030242605A680A4CC4
:103B680002F0F00282605A6802F4E062C2605B68A8
:103B7800DB0803F4E0630361236810BC03F0070368
:103B88000B60704700100240002002402DE9F04110
:103B98000446006882B0C30727D53B4BDA69D700D3
:103BA8003BD53A4B00251A68D60544D5364A136AE0
:103BB80013F440730FD0616801F4407083420BD056
:103BC80001270026136A324923F440700F600E6003
:103BD800D907106246D461682B4A136A23F44073EC
:103BE8000B431362002D38D1206883070DD410F0E1
:103BF800100007D00020244A6169536823F4800329
:103C08000B43536002B0BDE8F0811F4AA1685368B6
:103C180023F440430B435360E9E7DA69012542F096
:103C28008052DA61DB6903F080530193019B174BE3
:103C38001A68D605BAD41A681E4642F480721A6009
:103C4800FEF724FF07463368D805AFD4FEF71EFFFA
:103C5800C01B6428F7D90320D4E7D36923F0805325
:103C6800D361C1E71646FEF711FF41F28837804657
:103C780005E0FEF70BFFA0EB0800B842EBD8336A6B
:103C88009A07F6D5A7E700BF001002400070004071
:103C980040044242704700BF002864D038B590F80D
:103CA8003D30044603F0FF0293B3022322682F49F4
:103CB80084F83D308A4213682FD001F500618A42AA
:103CC8003FD0B2F1804F1AD0A1F598318A4216D070
:103CD80001F580618A4212D001F580618A420ED0D6
:103CE800A569E068616823F080032B431360D06204
:103CF800916201230020536184F83D3038BDA168EA
:103D080023F070030B43216923F440730B43E7E767
:103D180080F83C20FFF7BEFFC7E7A16823F07003D7
:103D28000B43216923F440730B43A16923F08003FB
:103D38000B431360E368D362636893626369136338
:103D4800D7E7A16823F070030B43216923F440737C
:103D5800A5690B43E068616823F080032B43136077
:103D6800D0629162EAE70120704700BF002C014051
:103D780003680020DA6842F00102DA601A6842F04B
:103D880001021A60704700BF704700BF002864D066
:103D980038B590F83D30044603F0FF0293B3022390
:103DA80022682F4984F83D308A4213682FD001F5E4
:103DB80000618A423FD0B2F1804F1AD0A1F5983104
:103DC8008A4216D001F580618A4212D001F58061DD
:103DD8008A420ED0A569E068616823F080032B430E
:103DE8001360D062916201230020536184F83D3052
:103DF80038BDA16823F070030B43216923F4407395
:103E08000B43E7E780F83C20FFF7BEFFC7E7A16850
:103E180023F070030B43216923F440730B43A1691A
:103E280023F080030B431360E368D36263689362F3
:103E380063691363D7E7A16823F070030B43216913
:103E480023F44073A5690B43E068616823F080039D
:103E58002B431360D0629162EAE70120704700BFEC
:103E6800002C01400122036802FA01F11A6A0C4889
:103E780022EA01021A621A6A834241EA02011962BD
:103E880008D0084A934205D01A68002042F001027F
:103E98001A6070475A6C42F400425A64F4E700BF53
:103EA800002C01400034014090F83C30012B47D0F1
:103EB800F0B40223012480F83D3080F83C400C2AFD
:103EC80035D8DFE802F06B343434073434349534B1
:103ED80034343F0003688E681D6A0F6825F01005AA
:103EE8001D621A6A5D6822F020029C6942EA061285
:103EF8006D4E24F4E644B34244EA072400F0B88047
:103F080006F50066B34200F0B3804E685D609C61C0
:103F18009E631A629C690D6944F400649C61996906
:103F280021F4806199619A6942EA05229A61002325
:103F3800F0BC012280F83C3080F83D2018467047DC
:103F48000220704703688E681D6A0F6825F4805543
:103F58001D621A6A5D6822F40052DC6942EA063280
:103F6800514E24F4E644B34244EA07246BD006F5E4
:103F78000066B34267D04E685D60DC611E641A62F9
:103F8800DC690D6944F40064DC61D96921F480615D
:103F9800D961DA6942EA0522DA61C8E703688E68FE
:103FA8001D6A0F6825F001051D621A6A5D6822F016
:103FB80002029C6932433C4E24F07304B34244EA43
:103FC800070464D006F50066B34260D04E685D60B1
:103FD8009C615E631A629C690D6944F008049C61E7
:103FE800996921F0040199619A692A439A619EE7C7
:103FF80003688E681D6A0F6825F480751D621A6A49
:104008005D6822F40072DC6942EA0622264E24F03A
:104018007304B34244EA07041BD006F50066B342B2
:1040280017D04E685D60DC61DE631A62DC690D6979
:1040380044F00804DC61D96921F00401D961DA6926
:104048002A43DA6173E74E6925F4804545EA861507
:1040580091E7CE6822F4006242EA06228F694E692F
:1040680025F440553E4322F4806245EA0615D8E718
:10407800CE6822F0800242EA06128F694E6925F462
:1040880040653E4322F0400245EA86053DE7CE689A
:1040980022F0080232438F694E6925F440753E4389
:1040A80022F00402354391E7002C014090F83C309F
:1040B800012B01D1022070470246022070B401256D
:1040C800136882F83D0098684C6820F070000E680C
:1040D800204320F007003043502C82F83C50986071
:1040E80044D020D9602C2ED0702C0BD1C8688E6893
:1040F8000D699C6840EA060141EA052124F47F40E5
:104108000143996000240125D968204621F0400127
:10411800D960D96821F48041D96082F83D5082F88D
:104128003C4070BC7047402CECD11C6A186A0D6981
:1041380020F001001862996921F0F00141EA0511A7
:1041480099611C62DEE71C6A8D6824F010040E6910
:104158001C629869196A20F4704021F0A00140EAB5
:10416800063041EA051198611962CBE71C6A1D6A9D
:10417800886825F001050E691D62996924F00A0412
:1041880021F0F001204341EA061199611862B9E76C
:10419800704700BF704700BF704700BF704700BF3F
:1041A800036810B51A690446910702D5DA689207C0
:1041B80062D41A69500702D5DA68510749D41A69D6
:1041C800120702D5DA68100731D41A69D20602D567
:1041D800DA68D00618D41A69D10702D5DA68D20786
:1041E8006BD41A69100602D5DA6811066DD41A69FB
:1041F800520602D5DA68500657D41A69910602D5D4
:10420800DA68920649D410BD6FF0100108221961CE
:10421800DB69204613F4407F227761D1FFF7B8FFAE
:104228002046FFF7B9FF002223682277D3E76FF013
:10423800080104221961DB6920469907227755D1C4
:10424800FFF7A6FF2046FFF7A7FF00222368227783
:10425800BBE76FF00401022219619B69204613F441
:10426800407F22773FD1FFF793FF2046FFF794FF67
:10427800002223682277A2E76FF002010122196168
:104288009B6902779B0728D1FFF782FF2046FFF73B
:1042980083FF0022236822778BE76FF020022046F5
:1042A800BDE810401A6100F08BB86FF0400220465C
:1042B8001A61FFF773FF23689FE76FF0010220463A
:1042C8001A6100F0C5F823688BE76FF0800220467A
:1042D8001A6100F077F8236889E7FFF75BFFD8E7F2
:1042E800FFF758FF9FE7FFF755FFC1E7FFF752FFBA
:1042F800ABE700BF0422036802FA01F11A6A002042
:1043080022EA01021A621A6A114319625A6C42F4CB
:1043180000425A641A6842F001021A60704700BFEE
:1043280090F83C30012B22D0024610B40024CB6810
:10433800886823F440730343486823F48063034385
:10434800086823F400630343086923F48053034394
:10435800486923F400530343886923F440431168F0
:1043680003434B64204682F83C4010BC704702204F
:10437800704700BF90F83C30012B1FD00246022046
:10438800F0B500250126136882F83D005C68D1F875
:1043980000E024F070045C6058684F6840EA0E0042
:1043A80058609C68284624F080049C6099683943CA
:1043B800996082F83D6082F83C50F0BD0220704759
:1043C800704700BF704700BF30B5014689B0002272
:1043D8001C20FEF7A9FD1C20FEF7DCFD194B01A9E6
:1043E800DA6903A842F00102DA61DB6903F001032C
:1043F8000293029BFFF7AAFB069BCBB9FFF786FB4C
:1044080000224FF0804540F2E7310F4B0F4CA3FBE1
:1044180000039B0C013B204663602560E16022613C
:10442800A260A261FFF738FC30B1012009B030BDAD
:10443800FFF76CFB4000E3E72046FFF799FC09B063
:1044480030BD00BF0010024083DE1B43C0010020C6
:10445800FEF714BB0148FFF7A3BE00BFC001002050
:104468002DE9F04782460468C1682269836822F40E
:1044780040520A432261E2680069DAF8141022F413
:10448800B052034322F00C020B431343E360636909
:10449800DAF81810514A23F440730B4394426361CD
:1044A80059D0FFF733FBDAF8043000EB800000EB5B
:1044B80080009B00B0FBF3F3494F4FF06408A7FB63
:1044C80003235B091D01FFF721FBDAF8042000EB49
:1044D8008000930000EB8000B0FBF3F6FFF716FBBB
:1044E800DAF8042000EB8000930000EB8000B0FBBA
:1044F800F3F3A7FB03235B0908FB13631B013233A8
:10450800A7FB03235B0903F0F006FFF7FFFADAF8CD
:10451800042000EB800000EB80009300B0FBF3F96F
:10452800FFF7F4FADAF8043000EB800000EB8000C3
:104538009B00B0FBF3F3A7FB03235B0908FB139372
:104548001B013233A7FB0323C3F3431333432B4429
:10455800A360BDE8F087FFF7E9FADAF8043000EB6A
:10456800800000EB80009B00B0FBF3F31C4F4FF082
:104578006408A7FB03235B091D01FFF7D7FADAF8E4
:10458800042000EB8000930000EB8000B0FBF3F602
:10459800FFF7CCFADAF8042000EB8000930000EB78
:1045A8008000B0FBF3F3A7FB03235B0908FB13634D
:1045B8001B013233A7FB03235B0903F0F006FFF767
:1045C800B5FADAF8042000EB8000930000EB8000D5
:1045D800B0FBF3F9FFF7AAFAA4E700BF00380140DF
:1045E8001F85EB51704700BF60B338B590F839307C
:1045F800044603F0FF0203B32423226884F8393009
:10460800D368204623F40053D360FFF729FF002521
:104618002021236828461A6922F490421A615A69AF
:1046280022F02A025A61DA6842F40052DA60E5633D
:1046380084F8391084F83A1038BD80F83820FFF72C
:10464800D1FFD9E701207047F0B590F83A4083B020
:10465800202C02D0022003B0F0BD002935D0002A5A
:1046680033D090F83830012BF4D004460025134697
:1046780001270A462226406B1549A262A385E563F5
:1046880084F8387084F83A60124F8162124E2168BB
:104698004563C76206630431FEF7FEFC2368019593
:1046A8001A68284601925A6884F838500192019A8B
:1046B800DA6842F48072DA605A6942F001025A619B
:1046C8005A6942F040025A61C5E70120C3E700BFBA
:1046D8005D47000899470008A9470008036810B516
:1046E800596990F839200446212A1ED0596994F84E
:1046F8003A20222A01D0002010BD4A06FBD55A696B
:10470800606B22F040025A6110B1FEF709FD236880
:104718002021DA68002022F49072DA605A6922F0C7
:1047280001025A6184F83A1010BD0906DED55A69AB
:10473800006B22F080025A6110B1FEF7F1FC236889
:104748002021DA6822F0C002DA6084F83910CDE757
:10475800704700BF08B50368406A1B6813F0200360
:1047680010D120210268C385D36823F48073D360F5
:10477800536923F001035361536923F040035361E4
:1047880080F83A10FFF7E4FF08BD00BF704700BF8C
:1047980008B5406AFFF7FAFF08BD00BF704700BFC1
:1047A80008B5436A1A68506993F8391021291CD052
:1047B800506993F83A10222907D0DA6B184642F06C
:1047C8001002DA63FFF7EAFF08BD4106F5D50021BC
:1047D8002020D985D16821F49071D160516921F0E8
:1047E8000101516183F83A00E7E70006E0D50021AE
:1047F8002020D984D16821F0C001D16083F8390024
:10480800D6E700BF70B500250C4E0D4CA41BA410B4
:10481800A54209D100F01AF800250A4E0A4CA41B3B
:10482800A410A54205D170BD56F82530984701352A
:10483800EEE756F8253098470135F2E79C4800081E
:104848009C4800089C480008A0480008F8B500BF2C
:10485800F8BC08BC9E467047F8B500BFF8BC08BC59
:044868009E467047B1
:10486C0002030405060708090A0B0C0D0E0F1010A5
:10487C00000002010405030000000000000000001D
:10488C0001020304060708090000000001020304EA
:04489C000D02000801
:0448A000E901000822
:1048A40000002042D0070000D0070000D00700001D
:1048B400D0070000D0070000D0070000640000000B
:0448C40000A24A0400
:04000005080011F1ED
:00000001FF
